:080000000C9407010C940000B0
:100008000C9400000C9400000C9400000C94000068
:100018000C9400000C9400000C9400000C94000058
:100028000C9400000C9400000C9400000C94000048
:100038000C9400000C9400000C9400000C94000038
:100048000C9400000C9400000C9400000C94000028
:100058000C9400000C9400000C9400000C94000018
:100068000C9400000C9400000C9400000C94000008
:100078000C9400000C9400000C9400000C940000F8
:100088000C9400000C9400000C9400000C940000E8
:100098000C9400000C9400000C9400000C940000D8
:1000A8000C9400000C9400000C9400000C940000C8
:1000B8000C9400000C9400000C9400000C940000B8
:1000C8000C9400000C9400000C9400000C940000A8
:1000D8000C9400000C9400000C9400000C94000098
:1000E8000C9400000C9400000C9400000C94000088
:1000F8000C9400000C9400000C9400000C94000078
:100108000C9400000C9400000C9400000C94000067
:100118000C9400000C9400000C9400000C94000057
:100128000C9400000C9400000C9400000C94000047
:100138000C9400000C9400000C9400000C94000037
:100148000C9400000C9400000C9400000C94000027
:100158000C9400000C9400000C9400000C94000017
:100168000C9400000C9400000C9400000C94000007
:100178000C9400000C9400000C9400000C940000F7
:100188000C9400000C9400000C9400000C940000E7
:100198000C9400000C9400000C9400000C940000D7
:1001A8000C9400000C9400000C9400000C940000C7
:1001B8000C9400000C9400000C9400000C940000B7
:1001C8000C9400000C9400000C9400000C940000A7
:1001D8000C9400000C9499020C9400000C94E10219
:1001E8000C9400000C9400000C9400000C94000087
:1001F8000C9400001027E80364000A0001000010B6
:10020800000110000100F894EE27F091CC01F8608D
:10021800F093CC01F8EDF4BFE093A20080E090E108
:10022800A0E0B0E2ED930197E9F7E0E0E0B9E1B9C9
:10023800E2B9E3B9E4B9E5B9E6B9E7B9E8B9E9B9C2
:10024800EAB9EBB9ECB9EDB9EEB9EFB9EBEB4E2E73
:10025800EAEA5E2EE0E06E2E7E2E8E2E9E2EAE2ECA
:10026800BE2ECE2EDE2EEFEFEDBFEFE2EEBFC0E0EA
:10027800D4E20C9485041A930A930FB7F894E0918A
:100288005000E260E0935000E0914100E0781E2FBA
:10029800E8EDE4BF10934100E0916000EE7FE09349
:1002A8006000E0915100E270E1F3E0914000E87FE6
:1002B800E1601E2FE8EDE4BF10934000E09150008C
:1002C800E27EE0935000E091B400E07FE093B40058
:1002D8000FBF61C2E0E0E0938001E0938101E09309
:1002E8008201E0938301E0938401E0938501E09328
:1002F8008601E0938701E0918801E078E093880126
:10030800E0E0E0938901E0918A01E078E0938A01D6
:10031800E0E0E0938B01E0918C01E078E0938C01C0
:10032800E0E0E0938D01E0938E01E0938F01E0918E
:10033800B400EF7CE093B400E091B600E87FE0936E
:10034800B6000895E0E0E0930406E0930006E09329
:100358001006E0931106E0931206E0931306E0936B
:100368001406E0931506E0931606E0931706E0914D
:100378000906E07FE0930906E0E0E0930A06E093CF
:100388000B06E0932406E0932006E0933006E09302
:100398003106E0933206E0933306E0933406E093A7
:1003A8003506E0933606E0933706E0912906E07FAC
:1003B800E0932906E0E0E0932A06E0932B06E4E0C8
:1003C800E0934406E7E0E0934006E0E0E09350065F
:1003D800E0935106E0935206E0935306E0935406E7
:1003E800E0935506E0935606E0935706E0934E06D1
:1003F800E0914906E07FE0934906E0E0E0934A0691
:10040800E0934B06E0936406E0EFE0936006E0E0DB
:10041800E0937006E0937106E0937206E09373062A
:10042800E0937406E0937506E0937606E09377060A
:10043800E0916906E07FE0936906E0E0E0936A06F0
:10044800E0936B06E0938406EFEFE0938006E0E02C
:10045800E0939006E0939106E0939206E09393066A
:10046800E0939406E0939506E0939606E09397064A
:10047800E0918906E07FE0938906E0E0E0938A0650
:10048800E0938B06E093A406E8E0E093A006E0E0A2
:10049800E093B006E093B106E093B206E093B306AA
:1004A800E093B406E093B506E093B606E093B7068A
:1004B800E091A906E07FE093A906E0E0E093AA06B0
:1004C800E093AB06E093E407E093E007E093F007DE
:1004D800E093F107E091E907E07FE093E907E0E0C6
:1004E800E093EA07E093EB070895E0E1E093B200B8
:1004F800E2E3E093B3000895E8E0E093A506E3E0C3
:10050800E093A50BE091A30BE07CE863E093A30BD9
:10051800EEE2E093A60BE8E9E093A70BE091A40BC9
:10052800E07EE861E093A40B08950A92EA93FA93B7
:10053800EFB7EA9322970E94DE061091A10B009173
:10054800A00B501621F400240A140B0409F006C06D
:10055800E1E0F0E05F018824992423C0E1E0F0E0C5
:10056800EA15FB0509F5EBE0F0E0E815F90511F4EB
:10057800401609F009C0AA24BB24F4010E949C0576
:10058800E1E0F0E03F0110C0EBE0F0E0E815F9052C
:1005980011F4401609F405C0AA24BB248824992420
:1005A80003C0F4010E949C050E94E5062896E99183
:1005B800EFBFF991E99109901895AA93EA93FA93F4
:1005C800EFB7EA93E0919224E030B1F0E150E09384
:1005D8009224E0919124EF5FE0939124E150F0E0C0
:1005E800E05BFB4DE081E093A00BA0919124A03447
:1005F80019F4E0E0E0939124E991EFBFF991E991D2
:10060800A9911895AA93A0919224A034E1F3F894A3
:10061800E0919224E03021F4E091A10BE072C1F462
:10062800E0919024EF5FE0939024E150F0E0E05BEC
:10063800FB4DA881A083A0919024A03419F4E0E098
:10064800E0939024E0919224EF5FE093922403C01A
:10065800E881E093A00B789421960895E091210316
:10066800EC79E0932103E0912203E67EE861E093D0
:100678002203E0912003E17EE560E09320030895E2
:10068800BA93AA931A93EB81E03011F0E2E001C02B
:10069800E1E01E2FE0912503E123E1F3123039F464
:1006A800E981FA81E0933A03F0933B0306C0E981BC
:1006B800FA81E0933803F09339031881249608955A
:1006C800BA93AA93A881B981E0E0EC931996ECE07B
:1006D800EC9371C01A930A931FB7F894A0E0B8E09E
:1006E800EFDFE1E0E0930008E3E7E0930108E0E0F2
:1006F800E0930308E0930408E0930608E0930708F2
:10070800E0919008EE7FE0939008E0919900EE7FE9
:100718000E2FE8EDE4BF00939900E0E0E093800835
:10072800E0938808E0938908E0938C08E0918308B7
:10073800E87EE0938308E0E0E0938208A4E8B8E06C
:100748000A2EAC91E0918408E470EA2BA02DEC937A
:10075800E0910C08E0930C08E0E0F0E0E09320085A
:10076800F0932108EFE3F1E0E0932608F0932708DF
:10077800E0E0F0E0E0932808F0932908E0932A08E5
:10078800F0932B08E0932C08F0932D08E0932E08A3
:10079800F0932F081FBF099119910895AA931A93EE
:1007A800E2E0E093CA01E981F0E01491E0E0E0932F
:1007B800CA01E12F188122960895A0E2EFDFE093A5
:1007C8000C02A1E2EBDFE0930D02E0E0E09301020E
:1007D800E2E0E0930402E0E2E0930202E0E0E0936A
:1007E8001802E0931902E1E0E0932002E8E0E093C8
:1007F8002102E1E0E0932802E0E1E0932902E1E050
:10080800E0933002E8E1E0933102E1E0E09338025E
:10081800E0E2E0933902E0E0E0930302E093220291
:10082800E0932A02E0933202E0933A02E091000258
:10083800E160E093000248C0AA930E94E006EC81C0
:10084800F0E0A0E2B2E00E94A305F801A381A17044
:10085800E1F34BC0A4E2A2DFE0934C02A5E29EDFE5
:10086800E0934D02E0E0E0934102E2E0E0934402CD
:10087800E1E2E0934202E0E0E0935802E09359029B
:10088800E1E0E0936002E8E0E0936102E1E0E093F8
:100898006802E8E1E0936902E0E0E0937002E09327
:1008A8007102E0937802E0937902E0934302E093C7
:1008B8006202E0936A02E0937202E0937A02E091A6
:1008C8004002E160E093400285E18A95F1F70895DE
:1008D800AA930E94E006EC81F0E0A0E6B2E00E9454
:1008E800A305F801A381A170E1F3D8011396E1E013
:1008F800EC93F80124813581F9010E94E7062596D9
:1009080008956097F894E091A200E873E6601E2FBE
:10091800E8EDE4BF1093A200E0E0E093A100ABDCB7
:10092800D9DC10DDE2DDE8DD99DED4DE46DF92DFDA
:100938007894062C072809F4F9C066247724A09136
:1009480001240E94AD05E0910224F0E0EA0FFB1FAC
:100958006F0120E030E02C30E0E03E074CF4A0E0EE
:10096800B4E2A20FB31FAC914DDE2F5F3F4FF3CF20
:10097800E0E0EA93D60184DEA09103240E94AD054D
:10098800E09104240E94B405A8E2B8E00E94C405DE
:10099800A09105240E94AD05E09106240E94B405AB
:1009A800AAE2B8E00E94C405A09107240E94AD0500
:1009B800E09108240E94B405ACE2B8E00E94C405A6
:1009C800E0910924E295E07FAE2FE0910A24E295B8
:1009D800EF70EA2BE0938406E0910A24E17021F09D
:1009E800E0E1E093650603C0E0E1E0936606E0918C
:1009F8000A24E27021F0E0E2E093650603C0E0E239
:100A0800E0936606E0910A24E47021F0E0E4E093C4
:100A1800650603C0E0E4E0936606E0910A24E87006
:100A280021F0E0E8E093650603C0E0E8E09366069D
:100A380021E030E02930E0E03E07B4F4A0910A2438
:100A4800F901B0E0EA23FB23309731F0A0E12A0254
:100A5800F001E093650605C0A0E12A02F001E093E9
:100A68006606220F331FE6CFA4E6B6E00A2EAC9145
:100A7800E0910A24E295E07FEA2BA02DEC93ACEC00
:100A8800C1DDA0E0D9DEAF015883FE013196408375
:100A9800A1E0D2DEAF015A83FE0133964083A2E083
:100AA800CBDEAF015C83FE0135964083A3E0C4DE54
:100AB800AF015E83FE0137964083A0E009DFAF01F6
:100AC8005887FE0139964083A1E002DFAF015A87BB
:100AD800FE013B964083E0912806E07FF0E00E940B
:100AE800B506EC87E0914806E07FED87FE013D966C
:100AF8000F01A081E0916806EF70EA2BD001EC931A
:100B0800E0E0EE87EF87AE85BF851E9768F4EE8537
:100B1800FF85DE01AE0FBF1FAC9174DDEE85FF854A
:100B28003196EE87FF87EFCFADED6CDD02CFFFCFBB
:100B3800E050FC4D0083F40131964F0108950E9466
:100B4800AE06EA0FFB1F8F01D801EC91E068EC9329
:100B58000895B0E0E0E0F1E00E94CB06DF010895DF
:100B6800F0E0EA0FFB1F0E94BE060E942F06DF017D
:100B7800CB01E4EAF0E76DE471E40E945D060895B4
:100B88000E94F605ED93FC930895552342F45038DE
:100B980011F4E0FF04C03196691F791F6BF050E82B
:100BA800572711F45F9373C05F3F31F0660F000C55
:100BB80057956795752F08955F9300200AF073C0C5
:100BC8006CC050E8192E1522880F991F9527550FCC
:100BD800879550E8072E0522660F771F7527550F52
:100BE80067950895689401C0E8945F93F2DF7038C0
:100BF80018F07F3F08F44BC056E1571BAAF45195F3
:100C080058300EF4593030F0EFEFFFEF6FEF7FE719
:100C180077F91AC077275523B9F0EE0FFF1F661F23
:100C2800771F5A95D1F710C07727583028F0EF2F43
:100C3800F62F672F5850F9CF552331F076956795E1
:100C4800F795E7955A95D1F700200AF47BD05F9184
:100C58000895689401C0E894309760407040B1F0FE
:100C6800002426F0772312F400946CD0172E7EE12E
:100C7800112032F07A95EE0FFF1F661F111CF9CF75
:100C8800EF2FF62F612D5F938ADF5F910895EE278E
:100C9800FF27662777275F910895EFEFFFEF6FE74C
:100CA8007FEF5F910895EFEFFFEF6FE77FE75F91C9
:100CB80008955F9386DF703821F411200AF4EDCF90
:100CC800F2CF903809F4E3CF01240894970B1BF472
:100CD800D4F30020F3CF792F1F932F933F934F9393
:100CE80011241127222733274427552790E2AE17CE
:100CF800BF078607410730F0AE1BBF0B860B410BC1
:100D0800089401C08894551F221F331F111CAA1F65
:100D1800BB1F881F441F9A9551F7F901612D4F9108
:100D28003F912F911F91662332F0550FEE1FFF1F41
:100D3800661F7A9543F229DF5F910895F195E19551
:100D4800F0400895F09560957095E195FF4F6F4FCD
:100D58007F4F0895EE0FFF1FEE0FFF1FEE0FFF1FCF
:100D68000895F595E795F595E795F595E795F59542
:100D7800E79508956F2F660F660B762F0895FA9FF3
:100D8800F02DEB9FF00DEA9FE02DF10D089504D0B2
:100D9800F6DF0EF4D3DF0895E894F7FF02C0CEDF44
:100DA8006894B7FF06C0A095B095119600F8039413
:100DB80000FA08955A934A933A932A931A930A93F6
:100DC80008955D814C813B812A81198108810895AC
:00000001FF
